{
  "contractName": "DecentralBank",
  "abi": [
    {
      "inputs": [
        {
          "internalType": "contract Tether",
          "name": "_tether",
          "type": "address"
        },
        {
          "internalType": "contract Reward",
          "name": "_rwd",
          "type": "address"
        }
      ],
      "stateMutability": "nonpayable",
      "type": "constructor"
    },
    {
      "inputs": [
        {
          "internalType": "address",
          "name": "",
          "type": "address"
        }
      ],
      "name": "hasStaked",
      "outputs": [
        {
          "internalType": "bool",
          "name": "",
          "type": "bool"
        }
      ],
      "stateMutability": "view",
      "type": "function",
      "constant": true
    },
    {
      "inputs": [
        {
          "internalType": "address",
          "name": "",
          "type": "address"
        }
      ],
      "name": "isStaking",
      "outputs": [
        {
          "internalType": "bool",
          "name": "",
          "type": "bool"
        }
      ],
      "stateMutability": "view",
      "type": "function",
      "constant": true
    },
    {
      "inputs": [],
      "name": "name",
      "outputs": [
        {
          "internalType": "string",
          "name": "",
          "type": "string"
        }
      ],
      "stateMutability": "view",
      "type": "function",
      "constant": true
    },
    {
      "inputs": [],
      "name": "owner",
      "outputs": [
        {
          "internalType": "address",
          "name": "",
          "type": "address"
        }
      ],
      "stateMutability": "view",
      "type": "function",
      "constant": true
    },
    {
      "inputs": [
        {
          "internalType": "uint256",
          "name": "",
          "type": "uint256"
        }
      ],
      "name": "stakers",
      "outputs": [
        {
          "internalType": "address",
          "name": "",
          "type": "address"
        }
      ],
      "stateMutability": "view",
      "type": "function",
      "constant": true
    },
    {
      "inputs": [
        {
          "internalType": "address",
          "name": "",
          "type": "address"
        }
      ],
      "name": "stakingBalance",
      "outputs": [
        {
          "internalType": "uint256",
          "name": "",
          "type": "uint256"
        }
      ],
      "stateMutability": "view",
      "type": "function",
      "constant": true
    },
    {
      "inputs": [
        {
          "internalType": "uint256",
          "name": "_amount",
          "type": "uint256"
        }
      ],
      "name": "stakeTokens",
      "outputs": [],
      "stateMutability": "nonpayable",
      "type": "function"
    },
    {
      "inputs": [],
      "name": "rewardToStakers",
      "outputs": [],
      "stateMutability": "nonpayable",
      "type": "function"
    },
    {
      "inputs": [],
      "name": "unStakeTokens",
      "outputs": [],
      "stateMutability": "nonpayable",
      "type": "function"
    }
  ],
  "bytecode": "0x60806040526040518060400160405280600e81526020017f446563656e7472616c2042616e6b000000000000000000000000000000000000815250600090816200004a9190620003c3565b503480156200005857600080fd5b50604051620015693803806200156983398181016040528101906200007e91906200056d565b33600160006101000a81548173ffffffffffffffffffffffffffffffffffffffff021916908373ffffffffffffffffffffffffffffffffffffffff16021790555080600260006101000a81548173ffffffffffffffffffffffffffffffffffffffff021916908373ffffffffffffffffffffffffffffffffffffffff16021790555081600360006101000a81548173ffffffffffffffffffffffffffffffffffffffff021916908373ffffffffffffffffffffffffffffffffffffffff1602179055505050620005b4565b600081519050919050565b7f4e487b7100000000000000000000000000000000000000000000000000000000600052604160045260246000fd5b7f4e487b7100000000000000000000000000000000000000000000000000000000600052602260045260246000fd5b60006002820490506001821680620001cb57607f821691505b602082108103620001e157620001e062000183565b5b50919050565b60008190508160005260206000209050919050565b60006020601f8301049050919050565b600082821b905092915050565b6000600883026200024b7fffffffffffffffffffffffffffffffffffffffffffffffffffffffffffffffff826200020c565b6200025786836200020c565b95508019841693508086168417925050509392505050565b6000819050919050565b6000819050919050565b6000620002a46200029e62000298846200026f565b62000279565b6200026f565b9050919050565b6000819050919050565b620002c08362000283565b620002d8620002cf82620002ab565b84845462000219565b825550505050565b600090565b620002ef620002e0565b620002fc818484620002b5565b505050565b5b81811015620003245762000318600082620002e5565b60018101905062000302565b5050565b601f82111562000373576200033d81620001e7565b6200034884620001fc565b8101602085101562000358578190505b620003706200036785620001fc565b83018262000301565b50505b505050565b600082821c905092915050565b6000620003986000198460080262000378565b1980831691505092915050565b6000620003b3838362000385565b9150826002028217905092915050565b620003ce8262000149565b67ffffffffffffffff811115620003ea57620003e962000154565b5b620003f68254620001b2565b6200040382828562000328565b600060209050601f8311600181146200043b576000841562000426578287015190505b620004328582620003a5565b865550620004a2565b601f1984166200044b86620001e7565b60005b8281101562000475578489015182556001820191506020850194506020810190506200044e565b8683101562000495578489015162000491601f89168262000385565b8355505b6001600288020188555050505b505050505050565b600080fd5b600073ffffffffffffffffffffffffffffffffffffffff82169050919050565b6000620004dc82620004af565b9050919050565b6000620004f082620004cf565b9050919050565b6200050281620004e3565b81146200050e57600080fd5b50565b6000815190506200052281620004f7565b92915050565b60006200053582620004cf565b9050919050565b620005478162000528565b81146200055357600080fd5b50565b60008151905062000567816200053c565b92915050565b60008060408385031215620005875762000586620004aa565b5b6000620005978582860162000511565b9250506020620005aa8582860162000556565b9150509250929050565b610fa580620005c46000396000f3fe608060405234801561001057600080fd5b50600436106100935760003560e01c80637896bf1d116100665780637896bf1d146101325780638da5cb5b1461013c578063a4975f4a1461015a578063c93c8f3414610164578063fd5e6dd11461019457610093565b806306fdde031461009857806345bc78ab146100b65780636f49712b146100e65780637547c7a314610116575b600080fd5b6100a06101c4565b6040516100ad9190610a39565b60405180910390f35b6100d060048036038101906100cb9190610abe565b610252565b6040516100dd9190610b04565b60405180910390f35b61010060048036038101906100fb9190610abe565b61026a565b60405161010d9190610b3a565b60405180910390f35b610130600480360381019061012b9190610b81565b61028a565b005b61013a610566565b005b61014461072e565b6040516101519190610bbd565b60405180910390f35b610162610754565b005b61017e60048036038101906101799190610abe565b61094a565b60405161018b9190610b3a565b60405180910390f35b6101ae60048036038101906101a99190610b81565b61096a565b6040516101bb9190610bbd565b60405180910390f35b600080546101d190610c07565b80601f01602080910402602001604051908101604052809291908181526020018280546101fd90610c07565b801561024a5780601f1061021f5761010080835404028352916020019161024a565b820191906000526020600020905b81548152906001019060200180831161022d57829003601f168201915b505050505081565b60056020528060005260406000206000915090505481565b60076020528060005260406000206000915054906101000a900460ff1681565b600081116102cd576040517f08c379a00000000000000000000000000000000000000000000000000000000081526004016102c490610c84565b60405180910390fd5b600360009054906101000a900473ffffffffffffffffffffffffffffffffffffffff1673ffffffffffffffffffffffffffffffffffffffff166323b872dd3330846040518463ffffffff1660e01b815260040161032c93929190610ca4565b6020604051808303816000875af115801561034b573d6000803e3d6000fd5b505050506040513d601f19601f8201168201806040525081019061036f9190610d07565b5080600560003373ffffffffffffffffffffffffffffffffffffffff1673ffffffffffffffffffffffffffffffffffffffff168152602001908152602001600020546103bb9190610d63565b600560003373ffffffffffffffffffffffffffffffffffffffff1673ffffffffffffffffffffffffffffffffffffffff16815260200190815260200160002081905550600660003373ffffffffffffffffffffffffffffffffffffffff1673ffffffffffffffffffffffffffffffffffffffff16815260200190815260200160002060009054906101000a900460ff166104b3576004339080600181540180825580915050600190039060005260206000200160009091909190916101000a81548173ffffffffffffffffffffffffffffffffffffffff021916908373ffffffffffffffffffffffffffffffffffffffff1602179055505b6001600660003373ffffffffffffffffffffffffffffffffffffffff1673ffffffffffffffffffffffffffffffffffffffff16815260200190815260200160002060006101000a81548160ff0219169083151502179055506001600760003373ffffffffffffffffffffffffffffffffffffffff1673ffffffffffffffffffffffffffffffffffffffff16815260200190815260200160002060006101000a81548160ff02191690831515021790555050565b6000600560003373ffffffffffffffffffffffffffffffffffffffff1673ffffffffffffffffffffffffffffffffffffffff168152602001908152602001600020549050600081116105ed576040517f08c379a00000000000000000000000000000000000000000000000000000000081526004016105e490610de3565b60405180910390fd5b600360009054906101000a900473ffffffffffffffffffffffffffffffffffffffff1673ffffffffffffffffffffffffffffffffffffffff1663a9059cbb33836040518363ffffffff1660e01b815260040161064a929190610e03565b6020604051808303816000875af1158015610669573d6000803e3d6000fd5b505050506040513d601f19601f8201168201806040525081019061068d9190610d07565b506000600560003373ffffffffffffffffffffffffffffffffffffffff1673ffffffffffffffffffffffffffffffffffffffff168152602001908152602001600020819055506000600760003373ffffffffffffffffffffffffffffffffffffffff1673ffffffffffffffffffffffffffffffffffffffff16815260200190815260200160002060006101000a81548160ff02191690831515021790555050565b600160009054906101000a900473ffffffffffffffffffffffffffffffffffffffff1681565b600160009054906101000a900473ffffffffffffffffffffffffffffffffffffffff1673ffffffffffffffffffffffffffffffffffffffff163373ffffffffffffffffffffffffffffffffffffffff16146107e4576040517f08c379a00000000000000000000000000000000000000000000000000000000081526004016107db90610e78565b60405180910390fd5b60005b6004805490508110156109475760006004828154811061080a57610809610e98565b5b9060005260206000200160009054906101000a900473ffffffffffffffffffffffffffffffffffffffff1690506000600a600560008473ffffffffffffffffffffffffffffffffffffffff1673ffffffffffffffffffffffffffffffffffffffff168152602001908152602001600020546108859190610ef6565b9050600081111561093257600260009054906101000a900473ffffffffffffffffffffffffffffffffffffffff1673ffffffffffffffffffffffffffffffffffffffff1663a9059cbb83836040518363ffffffff1660e01b81526004016108ed929190610e03565b6020604051808303816000875af115801561090c573d6000803e3d6000fd5b505050506040513d601f19601f820116820180604052508101906109309190610d07565b505b5050808061093f90610f27565b9150506107e7565b50565b60066020528060005260406000206000915054906101000a900460ff1681565b6004818154811061097a57600080fd5b906000526020600020016000915054906101000a900473ffffffffffffffffffffffffffffffffffffffff1681565b600081519050919050565b600082825260208201905092915050565b60005b838110156109e35780820151818401526020810190506109c8565b60008484015250505050565b6000601f19601f8301169050919050565b6000610a0b826109a9565b610a1581856109b4565b9350610a258185602086016109c5565b610a2e816109ef565b840191505092915050565b60006020820190508181036000830152610a538184610a00565b905092915050565b600080fd5b600073ffffffffffffffffffffffffffffffffffffffff82169050919050565b6000610a8b82610a60565b9050919050565b610a9b81610a80565b8114610aa657600080fd5b50565b600081359050610ab881610a92565b92915050565b600060208284031215610ad457610ad3610a5b565b5b6000610ae284828501610aa9565b91505092915050565b6000819050919050565b610afe81610aeb565b82525050565b6000602082019050610b196000830184610af5565b92915050565b60008115159050919050565b610b3481610b1f565b82525050565b6000602082019050610b4f6000830184610b2b565b92915050565b610b5e81610aeb565b8114610b6957600080fd5b50565b600081359050610b7b81610b55565b92915050565b600060208284031215610b9757610b96610a5b565b5b6000610ba584828501610b6c565b91505092915050565b610bb781610a80565b82525050565b6000602082019050610bd26000830184610bae565b92915050565b7f4e487b7100000000000000000000000000000000000000000000000000000000600052602260045260246000fd5b60006002820490506001821680610c1f57607f821691505b602082108103610c3257610c31610bd8565b5b50919050565b7f616d6f756e742063616e6e6f7420626520300000000000000000000000000000600082015250565b6000610c6e6012836109b4565b9150610c7982610c38565b602082019050919050565b60006020820190508181036000830152610c9d81610c61565b9050919050565b6000606082019050610cb96000830186610bae565b610cc66020830185610bae565b610cd36040830184610af5565b949350505050565b610ce481610b1f565b8114610cef57600080fd5b50565b600081519050610d0181610cdb565b92915050565b600060208284031215610d1d57610d1c610a5b565b5b6000610d2b84828501610cf2565b91505092915050565b7f4e487b7100000000000000000000000000000000000000000000000000000000600052601160045260246000fd5b6000610d6e82610aeb565b9150610d7983610aeb565b9250828201905080821115610d9157610d90610d34565b5b92915050565b7f7374616b696e672062616c616e63652063616e6e6f7420626520300000000000600082015250565b6000610dcd601b836109b4565b9150610dd882610d97565b602082019050919050565b60006020820190508181036000830152610dfc81610dc0565b9050919050565b6000604082019050610e186000830185610bae565b610e256020830184610af5565b9392505050565b7f63616c6c6572206d75737420626520746865206f776e65720000000000000000600082015250565b6000610e626018836109b4565b9150610e6d82610e2c565b602082019050919050565b60006020820190508181036000830152610e9181610e55565b9050919050565b7f4e487b7100000000000000000000000000000000000000000000000000000000600052603260045260246000fd5b7f4e487b7100000000000000000000000000000000000000000000000000000000600052601260045260246000fd5b6000610f0182610aeb565b9150610f0c83610aeb565b925082610f1c57610f1b610ec7565b5b828204905092915050565b6000610f3282610aeb565b91507fffffffffffffffffffffffffffffffffffffffffffffffffffffffffffffffff8203610f6457610f63610d34565b5b60018201905091905056fea264697066735822122095afeb5187c2d0e541cb208d9843cb106acc6aecccc75e16efc63a7d83da9f7864736f6c63430008110033",
  "immutableReferences": {},
  "source": "// SPDX-License-Identifier: GPL-3.0\npragma solidity >=0.5.0;\n\nimport \"./Reward.sol\";\nimport \"./Tether.sol\";\n\ncontract DecentralBank {\n    string public name = \"Decentral Bank\";\n    address public owner;\n    Reward reward;\n    Tether tether;\n\n    address[] public stakers;\n\n    mapping(address => uint256) public stakingBalance;\n    mapping(address => bool) public hasStaked;\n    mapping(address => bool) public isStaking;\n\n    constructor (Tether _tether,Reward _rwd) {\n        owner = msg.sender;\n        reward = _rwd;\n        tether = _tether;\n    }\n\n    function stakeTokens(uint256 _amount) public {\n        require(_amount > 0, \"amount cannot be 0\");\n\n        tether.transferFrom(msg.sender,address(this), _amount);\n\n        stakingBalance[msg.sender] = stakingBalance[msg.sender] + _amount;\n\n        if (!hasStaked[msg.sender]) {\n            stakers.push(msg.sender);\n        }\n\n        hasStaked[msg.sender] = true;\n        isStaking[msg.sender] = true;\n    }\n\n    function rewardToStakers() public {\n        require(msg.sender == owner, \"caller must be the owner\");\n\n        for (uint256 i = 0; i < stakers.length; i++) {\n            address recipient = stakers[i];\n            uint256 balance = stakingBalance[recipient] / 10;\n            if (balance > 0) {\n                reward.transfer(recipient, balance);\n            }\n        }\n    }\n\n    function unStakeTokens() public {\n        uint256 balance = stakingBalance[msg.sender];\n\n        require(balance > 0, \"staking balance cannot be 0\");\n\n        tether.transfer(msg.sender, balance);\n\n        stakingBalance[msg.sender] = 0;\n        isStaking[msg.sender] = false;\n    }\n\n}\n",
  "sourcePath": "/Users/jayghevariya/Downloads/defi-staking-app-starter-main/defi-staking-app/contracts/DecentralBank.sol",
  "compiler": {
    "name": "solc",
    "version": "0.8.17+commit.8df45f5f.Emscripten.clang"
  },
  "schemaVersion": "3.4.11",
  "updatedAt": "2023-01-17T06:54:34.555Z",
  "networkType": "ethereum",
  "devdoc": {
    "kind": "dev",
    "methods": {},
    "version": 1
  },
  "userdoc": {
    "kind": "user",
    "methods": {},
    "version": 1
  }
}